:020000040000FA
:0600000002EF03F0120004
:060008001CEF00F01200E5
:060018001CEF00F01200D5
:06002A0001003006000099
:080030008A0000000800000036
:08003800D9CFE6FFE6529EA0BD
:100040000BD000018A2B000E8B238C238D23FC0EFA
:10005000CF6E170ECE6E9E90E55275D2010ECD6E0C
:10006000C00EF2129D809E90120071DA8AC08EF04E
:100070008BC08FF08CC090F08DC091F08E0EE96E29
:10008000000EEA6EEE5000018A5D006EEE508B5954
:10009000016EEE508C59026EEE508D59036E5CDA93
:1000A000EE50005CEE500158EE500258EE500358EE
:1000B000E5E349D24CDA020EE126DE6ADD6ADE6A49
:1000C000DD6ADECF00F0DDCF01F0E80E005C030E4C
:1000D000015813E241DAEECFE6FFEECFE6FFEECFB6
:1000E000E6FFEFCFE6FFC1DFE552E552E552E5520C
:1000F000DF2A010EE6E3DB2AE4D7020EE15C02E22E
:10010000E16AE552E16E1FD2060EC16EBA6A9280B4
:1001100092829284928694909492949494969498D5
:10012000949A949C959E9390939493929590949E78
:100130009592959495989596959A959C9690939A64
:1001400093989396120003DAFE0EDB50160A01E133
:1001500043D1030A01E134D1010A01E125D1070AA3
:1001600001E116D1010A01E107D1030A01E1F8D04A
:10017000010A01E1E9D01F0A01E1DAD0010A01E137
:10018000CBD0030A01E1BCD0010A01E1ADD0070ADE
:1001900001E19ED0010A01E18FD0030A01E180D084
:1001A000010A01E171D00F0A63E0010A55E0030A78
:1001B00047E0010A39E0070A2BE0010A1DE0030AC3
:1001C0000FE0010A01E012D1FD0EDB5002E0010E4A
:1001D00001D0000EE8B08B80E8B008D18B9006D13A
:1001E000FD0EDB5002E0010E01D0000EE8B08B8264
:1001F000E8B0FCD08B92FAD0FD0EDB5002E0010E8D
:1002000001D0000EE8B08B84E8B0F0D08B94EED033
:10021000FD0EDB5002E0010E01D0000EE8B08B862F
:10022000E8B0E4D08B96E2D0FD0EDB5002E0010E88
:1002300001D0000EE8B08B88E8B0D8D08B98D6D02B
:10024000FD0EDB5002E0010E01D0000EE8B08B8AFB
:10025000E8B0CCD08B9ACAD0FD0EDB5002E0010E84
:1002600001D0000EE8B08B8CE8B0C0D08B9CBED023
:10027000FD0EDB5002E0010E01D0000EE8B08C8EC6
:10028000E8B0B4D08C9EB2D0FD0EDB5002E0010E7F
:1002900001D0000EE8B08A80E8B0A8D08A90A6D03D
:1002A000FD0EDB5002E0010E01D0000EE8B08A84A2
:1002B000E8B09CD08A949AD0FD0EDB5002E0010E8B
:1002C00001D0000EE8B08A82E8B090D08A928ED039
:1002D000FD0EDB5002E0010E01D0000EE8B08C8074
:1002E000E8B084D08C9082D0FD0EDB5002E0010E8D
:1002F00001D0000EE8B08B8EE8B078D08B9E76D01F
:10030000FD0EDB5002E0010E01D0000EE8B08C8241
:10031000E8B06CD08C926AD0FD0EDB5002E0010E8A
:1003200001D0000EE8B08C84E8B060D08C945ED030
:10033000FD0EDB5002E0010E01D0000EE8B08C880B
:10034000E8B054D08C9852D0FD0EDB5002E0010E84
:1003500001D0000EE8B08C86E8B048D08C9646D02C
:10036000FD0EDB5002E0010E01D0000EE8B08C8AD9
:10037000E8B03CD08C9A3AD0FD0EDB5002E0010E82
:1003800001D0000EE8B08C8CE8B030D08C9C2ED020
:10039000FD0EDB5002E0010E01D0000EE8B08D80B2
:1003A000E8B024D08D9022D0FD0EDB5002E0010E8B
:1003B00001D0000EE8B08A8AE8B018D08A9A16D028
:1003C000FD0EDB5002E0010E01D0000EE8B08A887D
:1003D000E8B00CD08A980AD0FD0EDB5002E0010E86
:1003E00001D0000EE8B08A86E8A08A96ACD0AFD8DB
:1003F000FE0EDBCF00F00B0EE76E0018E8AE02D069
:10040000E73402D0E750005C01E293D8FC0EDB50E9
:1004100009E0FE0EDBCFE6FF160EE552D880E7546A
:10042000E76E07D00B0E006EFE0EDBCFE7FF00502D
:10043000E726FE0EE7CFDBFF7CD885D088D81B0EE1
:10044000E126DF6A010EDB6A020EDB6A030EDB6A5D
:100450005BDE04DEDF6ADFCF00F0170EE76E001808
:10046000E8AE02D0E73402D0E750005C14E2D95085
:10047000040F006EDACF01F0DFCF02F0036A02BE94
:10048000036800500224E96E01500320EA6EDFCFBA
:10049000EFFFDF2AE0D7E66AE66ADFCFE6FFA7DFF5
:1004A000E552E552E552DFCF00F0000EE76E00188E
:1004B000E8AE02D0003403D0E750D880005405E203
:1004C000E66A010EE66EDF0404D0E66A010EE66E0F
:1004D0000B0EE66E8CDFE552E552E552DF2ADFCFE8
:1004E00000F00B0EE76E0018E8AE02D0003403D027
:1004F000E750D880005401E2DF6A010EDB6A020E89
:10050000DB6A010EDBCF00F0020EDBCF01F0026AE6
:10051000D8900250000A06E6500E005CC30E015847
:10052000000E0258B8E2010EDB2A020EEAE3DB2AD3
:10053000E8D7FD0EDBCFE6FFFE0EDBCFE6FF03DEE6
:10054000E552E5521200E552E7CFD9FF1200D9CFAC
:10055000E6FFE1CFD9FF1200D950FB0FE96EFF0E85
:06056000DA20EA6E120031
:0A0566002A0EF66E000EF76E000E6E
:10057000F86E00010900F550856F0900F550866F8F
:1005800003E1856701D03DD00900F550806F090077
:10059000F550816F0900F550826F09000900F55090
:1005A000E96E0900F550EA6E090009000900F550EE
:1005B000836F0900F550846F09000900F6CF87F0BA
:1005C000F7CF88F0F8CF89F080C0F6FF81C0F7FF41
:1005D00082C0F8FF0001835302E1845307E0090061
:1005E000F550EE6E8307F8E28407F9D787C0F6FF6F
:1005F00088C0F7FF89C0F8FF00018507000E865B01
:04060000BFD712004E
:0C06040015EE00F025EE00F0F86A059CF1
:10061000B3EC02F017EC03F01EEC02F0FBD7120073
:0E06200000EE00F00F0EEE6AEA62FDD7120047
:02062E001200B8
:080630000000000000000000C2
:020000040030CA
:010002000CF1
:010003000EEE
:010006008178
:00000001FF
