:020000040000FA
:0600000000008A11902BA4
:08000800A200030E8301831224
:100010000313A1000A088A01A00004088312031335
:10002000F800831203130C1C672883120313EF0AD2
:100030000319F00A0319F10A0319F20AFC308312BA
:1000400003138F0017308E000C1083120313F70A6E
:100050007708803E603E0318F70183120313B00156
:1000600017308312031330020318672830084C3E00
:10007000B10000300318013EB20031088400831340
:10008000321883170008803EB300831203137708E9
:10009000803E831203133302031859280030831261
:1000A0000313AF008312031330088A1114218A113D
:1000B0006328013083120313AF0083120313300847
:1000C0008A1114218A1183120313B00A3028831273
:1000D0000313780884008312031320088A00830125
:1000E000210E8300A20E220E0900B7228323831261
:1000F00003130910071087100711871107128712C1
:100100000713871308108810081188110812881225
:10011000081388130610861006118611061286121F
:100120007728080083120313C900831203132F08D2
:1001300083120313CA00831203132E0883120313BE
:10014000CB004908803E753E0318AE284A0883124A
:100150000313AF00831203134908C7200030831232
:1001600003134B040319B8284908163CC900BC28DE
:100170000B3083120313C907831203134A08831237
:100180000313AF00831203134908C720080083122A
:100190000313C600831203132F0883120313C7002F
:1001A00046084C3EC60000300318013EC800460811
:1001B00084008313481883174708800008008312BF
:1001C0000313C300831203132F0883120313C40005
:1001D000831203132E0883120313C5004308803EC5
:1001E000753E0318FB28440883120313AF008312E3
:1001F0000313430814210030831203134504031929
:1002000005294308163CC30009290B308312031348
:10021000C30783120313440883120313AF0083122E
:10022000031343081421080083120313C10083122F
:1002300003132F0883120313C2000314C11F0310FA
:100240000318B62A4108803E693E0318B62A0130D9
:100250008A003030410703188A0A83120313820090
:10026000472957296729772987299729A729B7294E
:10027000C729D729E729F729072A172A272A372A3A
:10028000472A572A672A772A872A972AA72A831272
:1002900003134208C100410C0318512983120313B0
:1002A0000910031C5629831203130914B62A83125A
:1002B00003134208C100410C031861298312031380
:1002C0000710031C6629831203130714B62A83122E
:1002D00003134208C100410C031871298312031350
:1002E0008710031C7629831203138714B62A8312FE
:1002F00003134208C100410C031881298312031320
:100300000711031C8629831203130715B62A8312CB
:1003100003134208C100410C0318912983120313EF
:100320008711031C9629831203138715B62A83129B
:1003300003134208C100410C0318A12983120313BF
:100340000712031CA629831203130716B62A831269
:1003500003134208C100410C0318B129831203138F
:100360008712031CB629831203138716B62A831239
:1003700003134208C100410C0318C129831203135F
:100380000713031CC629831203130717B62A831207
:1003900003134208C100410C0318D129831203132F
:1003A0008713031CD629831203138717B62A8312D7
:1003B00003134208C100410C0318E12983120313FF
:1003C0000810031CE629831203130814B62A8312AB
:1003D00003134208C100410C0318F12983120313CF
:1003E0008810031CF629831203138814B62A83127B
:1003F00003134208C100410C0318012A831203139E
:100400000811031C062A831203130815B62A831247
:1004100003134208C100410C0318112A831203136D
:100420008811031C162A831203138815B62A831217
:1004300003134208C100410C0318212A831203133D
:100440000812031C262A831203130816B62A8312E5
:1004500003134208C100410C0318312A831203130D
:100460008812031C362A831203138816B62A8312B5
:1004700003134208C100410C0318412A83120313DD
:100480000813031C462A831203130817B62A831283
:1004900003134208C100410C0318512A83120313AD
:1004A0008813031C562A831203138817B62A831253
:1004B00003134208C100410C0318612A831203137D
:1004C0000610031C662A831203130614B62A83122D
:1004D00003134208C100410C0318712A831203134D
:1004E0008610031C762A831203138614B62A8312FD
:1004F00003134208C100410C0318812A831203131D
:100500000611031C862A831203130615B62A8312CA
:1005100003134208C100410C0318912A83120313EC
:100520008611031C962A831203138615B62A83129A
:1005300003134208C100410C0318A12A83120313BC
:100540000612031CA62A831203130616B62A831268
:1005500003134208C100410C0318B12A831203138C
:100560008612031CB62A831203138616080006306F
:10057000831603139F0005148514051585150910AE
:1005800007108710071187110712871207138713A7
:10059000081088100811881108128812081388138F
:1005A00006108610061186110612861208008312A4
:1005B0000313BE00831203132F0883120313BD001D
:1005C000831203132E0883120313BC008312031338
:1005D0002D0883120313BB00E830BF000330C000B6
:1005E000831203133B0883120313AD00831203131A
:1005F0003C0883120313AE00831203133D088312D9
:100600000313AF00831203133E081123FF3083123C
:100610000313BF07031CC0033F084004031DF02A57
:10062000080083120313B600831203132F088312EA
:100630000313B500831203132E0883120313B400AF
:10064000831203132D0883120313B30083120313C1
:100650006F0883120313F3008312031370088312CD
:100660000313F40083120313710883120313F500BC
:1006700083120313720883120313F6008312031309
:100680007308831203136F0283120313B7008312DC
:100690000313700883120313B80083120313740842
:1006A000031C740A0319572B83120313B802831215
:1006B0000313710883120313B9008312031375081F
:1006C000031C750A0319672B83120313B9028312E3
:1006D00003137608031C760A831203137202831233
:1006E0000313BA0036083A02031D802B350839027D
:1006F000031D802B34083802031D802B330837027A
:10070000031C3E2B08000130831203139000C030FD
:100710008B04831603130C14831203130C100800AC
:100720005830AE000430AF0080308A11000037240A
:100730008A11000083120313E4002F08E3005A30EB
:10074000E5000430E600831203136308E700640841
:10075000E800FF30E307031CE4036708680403199B
:10076000202C04306507E700E801E80D6608E8077B
:100770006708AE006808AF0080308A110000372497
:100780008A11000083120313EA002F08E9006508AC
:10079000AE006608AF0080308A11000037248A114D
:1007A000000083120313EC00E8002F08EB00E700C1
:1007B00002306507E700E801E80D6608E80767080A
:1007C000AE006808AF0080308A11000037248A111B
:1007D000000083120313E800EE002F08E700ED008D
:1007E000831203136908ED006A08EE00FF30E90781
:1007F000031CEA036D086E040319192C6B08AE0084
:100800006C08AF0080308A11000024248A11000097
:1008100083120313ED00670884008313681883179D
:100820006D088000EB0A0319EC0AE70A0319E80ACD
:10083000F02B063083120313E5070318E60AA32BF7
:100840008A11000075280800003A03192B2C803A01
:100850000319322C00342E08840083132F188317B9
:10086000000808002F088A002E0882000800003ABD
:1008700003193F2C803A0319492CAF0100342E088C
:10088000840083132F1883170008AF00840A000820
:1008900008008A1100003224AD00AE0FAF03AF0A8A
:1008A0008A1100003224AC002D08AF002C0808008B
:1008B000033400346C3404346F34003404340034B2
:1008C0007034043473340034043400347434043425
:1008D00079340034013400340034003400340034FE
:0A08E000003400340034003400340A
:02400E007B3FF6
:00000001FF
